{
  "_format": "hh-sol-artifact-1",
  "contractName": "SingleSwapToken",
  "sourceName": "contracts/SwapToken.sol",
  "abi": [
    {
      "inputs": [],
      "name": "DAI",
      "outputs": [
        {
          "internalType": "address",
          "name": "",
          "type": "address"
        }
      ],
      "stateMutability": "view",
      "type": "function"
    },
    {
      "inputs": [],
      "name": "USDC",
      "outputs": [
        {
          "internalType": "address",
          "name": "",
          "type": "address"
        }
      ],
      "stateMutability": "view",
      "type": "function"
    },
    {
      "inputs": [],
      "name": "WETH9",
      "outputs": [
        {
          "internalType": "address",
          "name": "",
          "type": "address"
        }
      ],
      "stateMutability": "view",
      "type": "function"
    },
    {
      "inputs": [],
      "name": "poolFee",
      "outputs": [
        {
          "internalType": "uint24",
          "name": "",
          "type": "uint24"
        }
      ],
      "stateMutability": "view",
      "type": "function"
    },
    {
      "inputs": [
        {
          "internalType": "uint256",
          "name": "amountIn",
          "type": "uint256"
        }
      ],
      "name": "swapExactInputSingle",
      "outputs": [
        {
          "internalType": "uint256",
          "name": "amountOut",
          "type": "uint256"
        }
      ],
      "stateMutability": "nonpayable",
      "type": "function"
    },
    {
      "inputs": [
        {
          "internalType": "uint256",
          "name": "amountOut",
          "type": "uint256"
        },
        {
          "internalType": "uint256",
          "name": "amountInMaximum",
          "type": "uint256"
        }
      ],
      "name": "swapExactInputString",
      "outputs": [
        {
          "internalType": "uint256",
          "name": "amountIn",
          "type": "uint256"
        }
      ],
      "stateMutability": "nonpayable",
      "type": "function"
    },
    {
      "inputs": [
        {
          "internalType": "uint256",
          "name": "amountOut",
          "type": "uint256"
        },
        {
          "internalType": "uint256",
          "name": "amountInMaximum",
          "type": "uint256"
        }
      ],
      "name": "swapExactOutputSingle",
      "outputs": [
        {
          "internalType": "uint256",
          "name": "amountIn",
          "type": "uint256"
        }
      ],
      "stateMutability": "nonpayable",
      "type": "function"
    },
    {
      "inputs": [],
      "name": "swapRouter",
      "outputs": [
        {
          "internalType": "contract ISwapRouter",
          "name": "",
          "type": "address"
        }
      ],
      "stateMutability": "view",
      "type": "function"
    }
  ],
  "bytecode": "0x608060405234801561001057600080fd5b50611214806100206000396000f3fe608060405234801561001057600080fd5b50600436106100885760003560e01c8063a4e45e5f1161005b578063a4e45e5f14610117578063c31c9c0714610147578063c4b69a1814610165578063e0bab4c41461019557610088565b8063089fe6aa1461008d5780634aa4a4fc146100ab57806373bd43ad146100c957806389a30271146100f9575b600080fd5b6100956101b3565b6040516100a29190611122565b60405180910390f35b6100b36101b9565b6040516100c091906110b4565b60405180910390f35b6100e360048036038101906100de9190610e6a565b6101d1565b6040516100f0919061113d565b60405180910390f35b610101610394565b60405161010e91906110b4565b60405180910390f35b610131600480360381019061012c9190610ebc565b6103ac565b60405161013e919061113d565b60405180910390f35b61014f6105cd565b60405161015c91906110cf565b60405180910390f35b61017f600480360381019061017a9190610ebc565b6105e5565b60405161018c919061113d565b60405180910390f35b61019d610806565b6040516101aa91906110b4565b60405180910390f35b610bb881565b73c02aaa39b223fe8d0a0e5c4f27ead9083c756cc281565b60006101f373c02aaa39b223fe8d0a0e5c4f27ead9083c756cc233308561081e565b61022673c02aaa39b223fe8d0a0e5c4f27ead9083c756cc273e592427a0aece92de3edee1f18e0157c0586156484610a3e565b600060405180610100016040528073c02aaa39b223fe8d0a0e5c4f27ead9083c756cc273ffffffffffffffffffffffffffffffffffffffff168152602001736b175474e89094c44da98b954eedeac495271d0f73ffffffffffffffffffffffffffffffffffffffff168152602001610bb862ffffff1681526020013373ffffffffffffffffffffffffffffffffffffffff16815260200142815260200184815260200160008152602001600073ffffffffffffffffffffffffffffffffffffffff16815250905073e592427a0aece92de3edee1f18e0157c0586156473ffffffffffffffffffffffffffffffffffffffff1663414bf389826040518263ffffffff1660e01b815260040161033a91906110ea565b602060405180830381600087803b15801561035457600080fd5b505af1158015610368573d6000803e3d6000fd5b505050506040513d601f19601f8201168201806040525081019061038c9190610e93565b915050919050565b73a0b86991c6218b36c1d19d4a2e9eb0ce3606eb4881565b60006103ce73c02aaa39b223fe8d0a0e5c4f27ead9083c756cc233308561081e565b61040173c02aaa39b223fe8d0a0e5c4f27ead9083c756cc273e592427a0aece92de3edee1f18e0157c0586156484610a3e565b600060405180610100016040528073c02aaa39b223fe8d0a0e5c4f27ead9083c756cc273ffffffffffffffffffffffffffffffffffffffff168152602001736b175474e89094c44da98b954eedeac495271d0f73ffffffffffffffffffffffffffffffffffffffff168152602001610bb862ffffff1681526020013373ffffffffffffffffffffffffffffffffffffffff168152602001428152602001858152602001848152602001600073ffffffffffffffffffffffffffffffffffffffff16815250905073e592427a0aece92de3edee1f18e0157c0586156473ffffffffffffffffffffffffffffffffffffffff1663db3e2198826040518263ffffffff1660e01b81526004016105149190611106565b602060405180830381600087803b15801561052e57600080fd5b505af1158015610542573d6000803e3d6000fd5b505050506040513d601f19601f820116820180604052508101906105669190610e93565b9150828210156105c6576105a473c02aaa39b223fe8d0a0e5c4f27ead9083c756cc273e592427a0aece92de3edee1f18e0157c058615646000610a3e565b6105c573c02aaa39b223fe8d0a0e5c4f27ead9083c756cc233848603610c3f565b5b5092915050565b73e592427a0aece92de3edee1f18e0157c0586156481565b600061060773c02aaa39b223fe8d0a0e5c4f27ead9083c756cc233308561081e565b61063a73c02aaa39b223fe8d0a0e5c4f27ead9083c756cc273e592427a0aece92de3edee1f18e0157c0586156484610a3e565b600060405180610100016040528073c02aaa39b223fe8d0a0e5c4f27ead9083c756cc273ffffffffffffffffffffffffffffffffffffffff168152602001736b175474e89094c44da98b954eedeac495271d0f73ffffffffffffffffffffffffffffffffffffffff168152602001610bb862ffffff1681526020013373ffffffffffffffffffffffffffffffffffffffff168152602001428152602001858152602001848152602001600073ffffffffffffffffffffffffffffffffffffffff16815250905073e592427a0aece92de3edee1f18e0157c0586156473ffffffffffffffffffffffffffffffffffffffff1663db3e2198826040518263ffffffff1660e01b815260040161074d9190611106565b602060405180830381600087803b15801561076757600080fd5b505af115801561077b573d6000803e3d6000fd5b505050506040513d601f19601f8201168201806040525081019061079f9190610e93565b9150828210156107ff576107dd73c02aaa39b223fe8d0a0e5c4f27ead9083c756cc273e592427a0aece92de3edee1f18e0157c058615646000610a3e565b6107fe73c02aaa39b223fe8d0a0e5c4f27ead9083c756cc233848603610c3f565b5b5092915050565b736b175474e89094c44da98b954eedeac495271d0f81565b6000808573ffffffffffffffffffffffffffffffffffffffff166323b872dd60e01b868686604051602401808473ffffffffffffffffffffffffffffffffffffffff1681526020018373ffffffffffffffffffffffffffffffffffffffff1681526020018281526020019350505050604051602081830303815290604052907bffffffffffffffffffffffffffffffffffffffffffffffffffffffff19166020820180517bffffffffffffffffffffffffffffffffffffffffffffffffffffffff83818316178352505050506040518082805190602001908083835b6020831061091d57805182526020820191506020810190506020830392506108fa565b6001836020036101000a0380198251168184511680821785525050505050509050019150506000604051808303816000865af19150503d806000811461097f576040519150601f19603f3d011682016040523d82523d6000602084013e610984565b606091505b50915091508180156109c457506000815114806109c357508080602001905160208110156109b157600080fd5b81019080805190602001909291905050505b5b610a36576040517f08c379a00000000000000000000000000000000000000000000000000000000081526004018080602001828103825260038152602001807f535446000000000000000000000000000000000000000000000000000000000081525060200191505060405180910390fd5b505050505050565b6000808473ffffffffffffffffffffffffffffffffffffffff1663095ea7b360e01b8585604051602401808373ffffffffffffffffffffffffffffffffffffffff16815260200182815260200192505050604051602081830303815290604052907bffffffffffffffffffffffffffffffffffffffffffffffffffffffff19166020820180517bffffffffffffffffffffffffffffffffffffffffffffffffffffffff83818316178352505050506040518082805190602001908083835b60208310610b1f5780518252602082019150602081019050602083039250610afc565b6001836020036101000a0380198251168184511680821785525050505050509050019150506000604051808303816000865af19150503d8060008114610b81576040519150601f19603f3d011682016040523d82523d6000602084013e610b86565b606091505b5091509150818015610bc65750600081511480610bc55750808060200190516020811015610bb357600080fd5b81019080805190602001909291905050505b5b610c38576040517f08c379a00000000000000000000000000000000000000000000000000000000081526004018080602001828103825260028152602001807f534100000000000000000000000000000000000000000000000000000000000081525060200191505060405180910390fd5b5050505050565b6000808473ffffffffffffffffffffffffffffffffffffffff1663a9059cbb60e01b8585604051602401808373ffffffffffffffffffffffffffffffffffffffff16815260200182815260200192505050604051602081830303815290604052907bffffffffffffffffffffffffffffffffffffffffffffffffffffffff19166020820180517bffffffffffffffffffffffffffffffffffffffffffffffffffffffff83818316178352505050506040518082805190602001908083835b60208310610d205780518252602082019150602081019050602083039250610cfd565b6001836020036101000a0380198251168184511680821785525050505050509050019150506000604051808303816000865af19150503d8060008114610d82576040519150601f19603f3d011682016040523d82523d6000602084013e610d87565b606091505b5091509150818015610dc75750600081511480610dc65750808060200190516020811015610db457600080fd5b81019080805190602001909291905050505b5b610e39576040517f08c379a00000000000000000000000000000000000000000000000000000000081526004018080602001828103825260028152602001807f535400000000000000000000000000000000000000000000000000000000000081525060200191505060405180910390fd5b5050505050565b600081359050610e4f816111c7565b92915050565b600081519050610e64816111c7565b92915050565b600060208284031215610e7c57600080fd5b6000610e8a84828501610e40565b91505092915050565b600060208284031215610ea557600080fd5b6000610eb384828501610e55565b91505092915050565b60008060408385031215610ecf57600080fd5b6000610edd85828601610e40565b9250506020610eee85828601610e40565b9150509250929050565b610f0181611158565b82525050565b610f1081611158565b82525050565b610f1f816111a3565b82525050565b61010082016000820151610f3c6000850182610ef8565b506020820151610f4f6020850182610ef8565b506040820151610f626040850182611078565b506060820151610f756060850182610ef8565b506080820151610f886080850182611096565b5060a0820151610f9b60a0850182611096565b5060c0820151610fae60c0850182611096565b5060e0820151610fc160e0850182611069565b50505050565b61010082016000820151610fde6000850182610ef8565b506020820151610ff16020850182610ef8565b5060408201516110046040850182611078565b5060608201516110176060850182610ef8565b50608082015161102a6080850182611096565b5060a082015161103d60a0850182611096565b5060c082015161105060c0850182611096565b5060e082015161106360e0850182611069565b50505050565b6110728161116a565b82525050565b6110818161118a565b82525050565b6110908161118a565b82525050565b61109f81611199565b82525050565b6110ae81611199565b82525050565b60006020820190506110c96000830184610f07565b92915050565b60006020820190506110e46000830184610f16565b92915050565b6000610100820190506111006000830184610f25565b92915050565b60006101008201905061111c6000830184610fc7565b92915050565b60006020820190506111376000830184611087565b92915050565b600060208201905061115260008301846110a5565b92915050565b60006111638261116a565b9050919050565b600073ffffffffffffffffffffffffffffffffffffffff82169050919050565b600062ffffff82169050919050565b6000819050919050565b60006111ae826111b5565b9050919050565b60006111c08261116a565b9050919050565b6111d081611199565b81146111db57600080fd5b5056fea264697066735822122044b73281a20803df0e89b233b31af5457cf1334b966af61cfe1f0e5ee400b83f64736f6c63430007060033",
  "linkReferences": {},
  "deployedLinkReferences": {}
}