{
  "_format": "hh-sol-artifact-1",
  "contractName": "SingleSwapToken",
  "sourceName": "contracts/SwapToken.sol",
  "abi": [
    {
      "inputs": [
        {
          "internalType": "address",
          "name": "token1",
          "type": "address"
        },
        {
          "internalType": "address",
          "name": "token2",
          "type": "address"
        },
        {
          "internalType": "uint256",
          "name": "amountIn",
          "type": "uint256"
        }
      ],
      "name": "swapExactInputSingle",
      "outputs": [
        {
          "internalType": "uint256",
          "name": "amountOut",
          "type": "uint256"
        }
      ],
      "stateMutability": "nonpayable",
      "type": "function"
    },
    {
      "inputs": [
        {
          "internalType": "address",
          "name": "token1",
          "type": "address"
        },
        {
          "internalType": "address",
          "name": "token2",
          "type": "address"
        },
        {
          "internalType": "uint256",
          "name": "amountOut",
          "type": "uint256"
        },
        {
          "internalType": "uint256",
          "name": "amountInMaximum",
          "type": "uint256"
        }
      ],
      "name": "swapExactOutputSingle",
      "outputs": [
        {
          "internalType": "uint256",
          "name": "amountIn",
          "type": "uint256"
        }
      ],
      "stateMutability": "nonpayable",
      "type": "function"
    },
    {
      "inputs": [],
      "name": "swapRouter",
      "outputs": [
        {
          "internalType": "contract ISwapRouter",
          "name": "",
          "type": "address"
        }
      ],
      "stateMutability": "view",
      "type": "function"
    }
  ],
  "bytecode": "0x608060405234801561001057600080fd5b50610855806100206000396000f3fe608060405234801561001057600080fd5b50600436106100415760003560e01c8063bc96faa914610046578063c31c9c071461006f578063ceb9201214610084575b600080fd5b610059610054366004610734565b610097565b6040516100669190610816565b60405180910390f35b6100776101d3565b60405161006691906107ed565b6100596100923660046106f9565b6101eb565b60006100a5853330856102f0565b6100c48573e592427a0aece92de3edee1f18e0157c0586156484610448565b60408051610100810182526001600160a01b03808816825286166020820152610bb88183015233606082015242608082015260a0810185905260c08101849052600060e08201529051631b67c43360e31b815273e592427a0aece92de3edee1f18e0157c058615649063db3e219890610141908490600401610801565b602060405180830381600087803b15801561015b57600080fd5b505af115801561016f573d6000803e3d6000fd5b505050506040513d601f19601f820116820180604052508101906101939190610775565b9150828210156101ca576101bd8673e592427a0aece92de3edee1f18e0157c058615646000610448565b6101ca8633848603610596565b50949350505050565b73e592427a0aece92de3edee1f18e0157c0586156481565b60006101f9843330856102f0565b6102188473e592427a0aece92de3edee1f18e0157c0586156484610448565b60408051610100810182526001600160a01b03808716825285166020820152610bb88183015233606082015242608082015260a08101849052600060c0820181905260e0820152905163414bf38960e01b815273e592427a0aece92de3edee1f18e0157c058615649063414bf38990610295908490600401610801565b602060405180830381600087803b1580156102af57600080fd5b505af11580156102c3573d6000803e3d6000fd5b505050506040513d601f19601f820116820180604052508101906102e79190610775565b95945050505050565b604080516001600160a01b0385811660248301528481166044830152606480830185905283518084039091018152608490920183526020820180516001600160e01b03166323b872dd60e01b178152925182516000948594938a169392918291908083835b602083106103745780518252601f199092019160209182019101610355565b6001836020036101000a0380198251168184511680821785525050505050509050019150506000604051808303816000865af19150503d80600081146103d6576040519150601f19603f3d011682016040523d82523d6000602084013e6103db565b606091505b5091509150818015610409575080511580610409575080806020019051602081101561040657600080fd5b50515b610440576040805162461bcd60e51b815260206004820152600360248201526229aa2360e91b604482015290519081900360640190fd5b505050505050565b604080516001600160a01b038481166024830152604480830185905283518084039091018152606490920183526020820180516001600160e01b031663095ea7b360e01b1781529251825160009485949389169392918291908083835b602083106104c45780518252601f1990920191602091820191016104a5565b6001836020036101000a0380198251168184511680821785525050505050509050019150506000604051808303816000865af19150503d8060008114610526576040519150601f19603f3d011682016040523d82523d6000602084013e61052b565b606091505b5091509150818015610559575080511580610559575080806020019051602081101561055657600080fd5b50515b61058f576040805162461bcd60e51b8152602060048201526002602482015261534160f01b604482015290519081900360640190fd5b5050505050565b604080516001600160a01b038481166024830152604480830185905283518084039091018152606490920183526020820180516001600160e01b031663a9059cbb60e01b1781529251825160009485949389169392918291908083835b602083106106125780518252601f1990920191602091820191016105f3565b6001836020036101000a0380198251168184511680821785525050505050509050019150506000604051808303816000865af19150503d8060008114610674576040519150601f19603f3d011682016040523d82523d6000602084013e610679565b606091505b50915091508180156106a75750805115806106a757508080602001905160208110156106a457600080fd5b50515b61058f576040805162461bcd60e51b815260206004820152600260248201526114d560f21b604482015290519081900360640190fd5b80356001600160a01b03811681146106f457600080fd5b919050565b60008060006060848603121561070d578283fd5b610716846106dd565b9250610724602085016106dd565b9150604084013590509250925092565b60008060008060808587031215610749578081fd5b610752856106dd565b9350610760602086016106dd565b93969395505050506040820135916060013590565b600060208284031215610786578081fd5b5051919050565b80516001600160a01b03908116835260208083015182169084015260408083015162ffffff16908401526060808301518216908401526080808301519084015260a0828101519084015260c0808301519084015260e09182015116910152565b6001600160a01b0391909116815260200190565b6101008101610810828461078d565b92915050565b9081526020019056fea264697066735822122020c12f52ee0dec4c484846a0bd5e89d400201f073d27e6f858d008ce1b19b6b464736f6c63430007060033",
  "linkReferences": {},
  "deployedLinkReferences": {}
}