{
  "_format": "hh-sol-artifact-1",
  "contractName": "SwapMultiHop",
  "sourceName": "contracts/SwapMultiHop.sol",
  "abi": [
    {
      "inputs": [],
      "name": "DAI",
      "outputs": [
        {
          "internalType": "address",
          "name": "",
          "type": "address"
        }
      ],
      "stateMutability": "view",
      "type": "function"
    },
    {
      "inputs": [],
      "name": "USDC",
      "outputs": [
        {
          "internalType": "address",
          "name": "",
          "type": "address"
        }
      ],
      "stateMutability": "view",
      "type": "function"
    },
    {
      "inputs": [],
      "name": "WETH9",
      "outputs": [
        {
          "internalType": "address",
          "name": "",
          "type": "address"
        }
      ],
      "stateMutability": "view",
      "type": "function"
    },
    {
      "inputs": [],
      "name": "poolFee",
      "outputs": [
        {
          "internalType": "uint24",
          "name": "",
          "type": "uint24"
        }
      ],
      "stateMutability": "view",
      "type": "function"
    },
    {
      "inputs": [
        {
          "internalType": "uint256",
          "name": "amountIn",
          "type": "uint256"
        }
      ],
      "name": "swapExactInputMultihop",
      "outputs": [
        {
          "internalType": "uint256",
          "name": "amountOut",
          "type": "uint256"
        }
      ],
      "stateMutability": "nonpayable",
      "type": "function"
    },
    {
      "inputs": [
        {
          "internalType": "uint256",
          "name": "amountOut",
          "type": "uint256"
        },
        {
          "internalType": "uint256",
          "name": "amountInMaximum",
          "type": "uint256"
        }
      ],
      "name": "swapExactOutputMultihop",
      "outputs": [
        {
          "internalType": "uint256",
          "name": "amountIn",
          "type": "uint256"
        }
      ],
      "stateMutability": "nonpayable",
      "type": "function"
    },
    {
      "inputs": [],
      "name": "swapRouter",
      "outputs": [
        {
          "internalType": "contract ISwapRouter",
          "name": "",
          "type": "address"
        }
      ],
      "stateMutability": "view",
      "type": "function"
    }
  ],
  "bytecode": "0x608060405234801561001057600080fd5b50610e86806100206000396000f3fe608060405234801561001057600080fd5b506004361061007d5760003560e01c806389a302711161005b57806389a30271146100ee578063c31c9c071461010c578063e0bab4c41461012a578063edd83557146101485761007d565b8063089fe6aa146100825780633b85cf6a146100a05780634aa4a4fc146100d0575b600080fd5b61008a610178565b6040516100979190610ce4565b60405180910390f35b6100ba60048036038101906100b59190610a22565b61017e565b6040516100c79190610cff565b60405180910390f35b6100d8610381565b6040516100e59190610c6a565b60405180910390f35b6100f6610399565b6040516101039190610c6a565b60405180910390f35b6101146103b1565b6040516101219190610c85565b60405180910390f35b6101326103c9565b60405161013f9190610c6a565b60405180910390f35b610162600480360381019061015d91906109d0565b6103e1565b60405161016f9190610cff565b60405180910390f35b610bb881565b60006101a073c02aaa39b223fe8d0a0e5c4f27ead9083c756cc2333085610585565b6101d373c02aaa39b223fe8d0a0e5c4f27ead9083c756cc273e592427a0aece92de3edee1f18e0157c05861564846107a5565b60006040518060a00160405280736b175474e89094c44da98b954eedeac495271d0f610bb873a0b86991c6218b36c1d19d4a2e9eb0ce3606eb48606473c02aaa39b223fe8d0a0e5c4f27ead9083c756cc2604051602001610238959493929190610c0b565b60405160208183030381529060405281526020013373ffffffffffffffffffffffffffffffffffffffff16815260200142815260200185815260200184815250905073e592427a0aece92de3edee1f18e0157c0586156473ffffffffffffffffffffffffffffffffffffffff1663f28c0498826040518263ffffffff1660e01b81526004016102c79190610cc2565b602060405180830381600087803b1580156102e157600080fd5b505af11580156102f5573d6000803e3d6000fd5b505050506040513d601f19601f8201168201806040525081019061031991906109f9565b91508282101561037a5761035773c02aaa39b223fe8d0a0e5c4f27ead9083c756cc273e592427a0aece92de3edee1f18e0157c0586156460006107a5565b61037973c02aaa39b223fe8d0a0e5c4f27ead9083c756cc23033858703610585565b5b5092915050565b73c02aaa39b223fe8d0a0e5c4f27ead9083c756cc281565b73a0b86991c6218b36c1d19d4a2e9eb0ce3606eb4881565b73e592427a0aece92de3edee1f18e0157c0586156481565b736b175474e89094c44da98b954eedeac495271d0f81565b600061040373c02aaa39b223fe8d0a0e5c4f27ead9083c756cc2333085610585565b61043673c02aaa39b223fe8d0a0e5c4f27ead9083c756cc273e592427a0aece92de3edee1f18e0157c05861564846107a5565b60006040518060a0016040528073c02aaa39b223fe8d0a0e5c4f27ead9083c756cc2610bb873a0b86991c6218b36c1d19d4a2e9eb0ce3606eb486064736b175474e89094c44da98b954eedeac495271d0f60405160200161049b959493929190610c0b565b60405160208183030381529060405281526020013373ffffffffffffffffffffffffffffffffffffffff1681526020014281526020018481526020016000815250905073e592427a0aece92de3edee1f18e0157c0586156473ffffffffffffffffffffffffffffffffffffffff1663c04b8d59826040518263ffffffff1660e01b815260040161052b9190610ca0565b602060405180830381600087803b15801561054557600080fd5b505af1158015610559573d6000803e3d6000fd5b505050506040513d601f19601f8201168201806040525081019061057d91906109f9565b915050919050565b6000808573ffffffffffffffffffffffffffffffffffffffff166323b872dd60e01b868686604051602401808473ffffffffffffffffffffffffffffffffffffffff1681526020018373ffffffffffffffffffffffffffffffffffffffff1681526020018281526020019350505050604051602081830303815290604052907bffffffffffffffffffffffffffffffffffffffffffffffffffffffff19166020820180517bffffffffffffffffffffffffffffffffffffffffffffffffffffffff83818316178352505050506040518082805190602001908083835b602083106106845780518252602082019150602081019050602083039250610661565b6001836020036101000a0380198251168184511680821785525050505050509050019150506000604051808303816000865af19150503d80600081146106e6576040519150601f19603f3d011682016040523d82523d6000602084013e6106eb565b606091505b509150915081801561072b575060008151148061072a575080806020019051602081101561071857600080fd5b81019080805190602001909291905050505b5b61079d576040517f08c379a00000000000000000000000000000000000000000000000000000000081526004018080602001828103825260038152602001807f535446000000000000000000000000000000000000000000000000000000000081525060200191505060405180910390fd5b505050505050565b6000808473ffffffffffffffffffffffffffffffffffffffff1663095ea7b360e01b8585604051602401808373ffffffffffffffffffffffffffffffffffffffff16815260200182815260200192505050604051602081830303815290604052907bffffffffffffffffffffffffffffffffffffffffffffffffffffffff19166020820180517bffffffffffffffffffffffffffffffffffffffffffffffffffffffff83818316178352505050506040518082805190602001908083835b602083106108865780518252602082019150602081019050602083039250610863565b6001836020036101000a0380198251168184511680821785525050505050509050019150506000604051808303816000865af19150503d80600081146108e8576040519150601f19603f3d011682016040523d82523d6000602084013e6108ed565b606091505b509150915081801561092d575060008151148061092c575080806020019051602081101561091a57600080fd5b81019080805190602001909291905050505b5b61099f576040517f08c379a00000000000000000000000000000000000000000000000000000000081526004018080602001828103825260028152602001807f534100000000000000000000000000000000000000000000000000000000000081525060200191505060405180910390fd5b5050505050565b6000813590506109b581610e39565b92915050565b6000815190506109ca81610e39565b92915050565b6000602082840312156109e257600080fd5b60006109f0848285016109a6565b91505092915050565b600060208284031215610a0b57600080fd5b6000610a19848285016109bb565b91505092915050565b60008060408385031215610a3557600080fd5b6000610a43858286016109a6565b9250506020610a54858286016109a6565b9150509250929050565b610a6781610d36565b82525050565b610a7681610d36565b82525050565b610a8d610a8882610d36565b610dd8565b82525050565b6000610a9e82610d1a565b610aa88185610d25565b9350610ab8818560208601610da5565b610ac181610e0e565b840191505092915050565b610ad581610d81565b82525050565b600060a0830160008301518482036000860152610af88282610a93565b9150506020830151610b0d6020860182610a5e565b506040830151610b206040860182610bed565b506060830151610b336060860182610bed565b506080830151610b466080860182610bed565b508091505092915050565b600060a0830160008301518482036000860152610b6e8282610a93565b9150506020830151610b836020860182610a5e565b506040830151610b966040860182610bed565b506060830151610ba96060860182610bed565b506080830151610bbc6080860182610bed565b508091505092915050565b610bd081610d68565b82525050565b610be7610be282610d68565b610dfc565b82525050565b610bf681610d77565b82525050565b610c0581610d77565b82525050565b6000610c178288610a7c565b601482019150610c278287610bd6565b600382019150610c378286610a7c565b601482019150610c478285610bd6565b600382019150610c578284610a7c565b6014820191508190509695505050505050565b6000602082019050610c7f6000830184610a6d565b92915050565b6000602082019050610c9a6000830184610acc565b92915050565b60006020820190508181036000830152610cba8184610adb565b905092915050565b60006020820190508181036000830152610cdc8184610b51565b905092915050565b6000602082019050610cf96000830184610bc7565b92915050565b6000602082019050610d146000830184610bfc565b92915050565b600081519050919050565b600082825260208201905092915050565b6000610d4182610d48565b9050919050565b600073ffffffffffffffffffffffffffffffffffffffff82169050919050565b600062ffffff82169050919050565b6000819050919050565b6000610d8c82610d93565b9050919050565b6000610d9e82610d48565b9050919050565b60005b83811015610dc3578082015181840152602081019050610da8565b83811115610dd2576000848401525b50505050565b6000610de382610dea565b9050919050565b6000610df582610e2c565b9050919050565b6000610e0782610e1f565b9050919050565b6000601f19601f8301169050919050565b60008160e81b9050919050565b60008160601b9050919050565b610e4281610d77565b8114610e4d57600080fd5b5056fea2646970667358221220630405ef8617c0d69991fa7f7d74f4db03bd65171747ae452f442b87dbc2e54364736f6c63430007060033",
  "linkReferences": {},
  "deployedLinkReferences": {}
}